{
  "contractName": "SpacePolyInventory",
  "abi": [
    {
      "inputs": [
        {
          "internalType": "address",
          "name": "token_",
          "type": "address"
        }
      ],
      "stateMutability": "nonpayable",
      "type": "constructor"
    },
    {
      "anonymous": false,
      "inputs": [
        {
          "indexed": true,
          "internalType": "address",
          "name": "account",
          "type": "address"
        },
        {
          "indexed": true,
          "internalType": "address",
          "name": "operator",
          "type": "address"
        },
        {
          "indexed": false,
          "internalType": "bool",
          "name": "approved",
          "type": "bool"
        }
      ],
      "name": "ApprovalForAll",
      "type": "event"
    },
    {
      "anonymous": false,
      "inputs": [
        {
          "indexed": true,
          "internalType": "address",
          "name": "previousOwner",
          "type": "address"
        },
        {
          "indexed": true,
          "internalType": "address",
          "name": "newOwner",
          "type": "address"
        }
      ],
      "name": "OwnershipTransferred",
      "type": "event"
    },
    {
      "anonymous": false,
      "inputs": [
        {
          "indexed": true,
          "internalType": "address",
          "name": "operator",
          "type": "address"
        },
        {
          "indexed": true,
          "internalType": "address",
          "name": "from",
          "type": "address"
        },
        {
          "indexed": true,
          "internalType": "address",
          "name": "to",
          "type": "address"
        },
        {
          "indexed": false,
          "internalType": "uint256[]",
          "name": "ids",
          "type": "uint256[]"
        },
        {
          "indexed": false,
          "internalType": "uint256[]",
          "name": "values",
          "type": "uint256[]"
        }
      ],
      "name": "TransferBatch",
      "type": "event"
    },
    {
      "anonymous": false,
      "inputs": [
        {
          "indexed": true,
          "internalType": "address",
          "name": "operator",
          "type": "address"
        },
        {
          "indexed": true,
          "internalType": "address",
          "name": "from",
          "type": "address"
        },
        {
          "indexed": true,
          "internalType": "address",
          "name": "to",
          "type": "address"
        },
        {
          "indexed": false,
          "internalType": "uint256",
          "name": "id",
          "type": "uint256"
        },
        {
          "indexed": false,
          "internalType": "uint256",
          "name": "value",
          "type": "uint256"
        }
      ],
      "name": "TransferSingle",
      "type": "event"
    },
    {
      "anonymous": false,
      "inputs": [
        {
          "indexed": false,
          "internalType": "string",
          "name": "value",
          "type": "string"
        },
        {
          "indexed": true,
          "internalType": "uint256",
          "name": "id",
          "type": "uint256"
        }
      ],
      "name": "URI",
      "type": "event"
    },
    {
      "inputs": [
        {
          "internalType": "address",
          "name": "account",
          "type": "address"
        },
        {
          "internalType": "uint256",
          "name": "id",
          "type": "uint256"
        }
      ],
      "name": "balanceOf",
      "outputs": [
        {
          "internalType": "uint256",
          "name": "",
          "type": "uint256"
        }
      ],
      "stateMutability": "view",
      "type": "function"
    },
    {
      "inputs": [
        {
          "internalType": "address[]",
          "name": "accounts",
          "type": "address[]"
        },
        {
          "internalType": "uint256[]",
          "name": "ids",
          "type": "uint256[]"
        }
      ],
      "name": "balanceOfBatch",
      "outputs": [
        {
          "internalType": "uint256[]",
          "name": "",
          "type": "uint256[]"
        }
      ],
      "stateMutability": "view",
      "type": "function"
    },
    {
      "inputs": [
        {
          "internalType": "address",
          "name": "account",
          "type": "address"
        },
        {
          "internalType": "address",
          "name": "operator",
          "type": "address"
        }
      ],
      "name": "isApprovedForAll",
      "outputs": [
        {
          "internalType": "bool",
          "name": "",
          "type": "bool"
        }
      ],
      "stateMutability": "view",
      "type": "function"
    },
    {
      "inputs": [],
      "name": "owner",
      "outputs": [
        {
          "internalType": "address",
          "name": "",
          "type": "address"
        }
      ],
      "stateMutability": "view",
      "type": "function"
    },
    {
      "inputs": [],
      "name": "renounceOwnership",
      "outputs": [],
      "stateMutability": "nonpayable",
      "type": "function"
    },
    {
      "inputs": [
        {
          "internalType": "address",
          "name": "from",
          "type": "address"
        },
        {
          "internalType": "address",
          "name": "to",
          "type": "address"
        },
        {
          "internalType": "uint256[]",
          "name": "ids",
          "type": "uint256[]"
        },
        {
          "internalType": "uint256[]",
          "name": "amounts",
          "type": "uint256[]"
        },
        {
          "internalType": "bytes",
          "name": "data",
          "type": "bytes"
        }
      ],
      "name": "safeBatchTransferFrom",
      "outputs": [],
      "stateMutability": "nonpayable",
      "type": "function"
    },
    {
      "inputs": [
        {
          "internalType": "address",
          "name": "from",
          "type": "address"
        },
        {
          "internalType": "address",
          "name": "to",
          "type": "address"
        },
        {
          "internalType": "uint256",
          "name": "id",
          "type": "uint256"
        },
        {
          "internalType": "uint256",
          "name": "amount",
          "type": "uint256"
        },
        {
          "internalType": "bytes",
          "name": "data",
          "type": "bytes"
        }
      ],
      "name": "safeTransferFrom",
      "outputs": [],
      "stateMutability": "nonpayable",
      "type": "function"
    },
    {
      "inputs": [
        {
          "internalType": "address",
          "name": "operator",
          "type": "address"
        },
        {
          "internalType": "bool",
          "name": "approved",
          "type": "bool"
        }
      ],
      "name": "setApprovalForAll",
      "outputs": [],
      "stateMutability": "nonpayable",
      "type": "function"
    },
    {
      "inputs": [
        {
          "internalType": "bytes4",
          "name": "interfaceId",
          "type": "bytes4"
        }
      ],
      "name": "supportsInterface",
      "outputs": [
        {
          "internalType": "bool",
          "name": "",
          "type": "bool"
        }
      ],
      "stateMutability": "view",
      "type": "function"
    },
    {
      "inputs": [
        {
          "internalType": "address",
          "name": "newOwner",
          "type": "address"
        }
      ],
      "name": "transferOwnership",
      "outputs": [],
      "stateMutability": "nonpayable",
      "type": "function"
    },
    {
      "inputs": [
        {
          "internalType": "uint256",
          "name": "",
          "type": "uint256"
        }
      ],
      "name": "uri",
      "outputs": [
        {
          "internalType": "string",
          "name": "",
          "type": "string"
        }
      ],
      "stateMutability": "view",
      "type": "function"
    },
    {
      "inputs": [
        {
          "internalType": "address",
          "name": "token_",
          "type": "address"
        }
      ],
      "name": "updateToken",
      "outputs": [],
      "stateMutability": "nonpayable",
      "type": "function"
    },
    {
      "inputs": [
        {
          "internalType": "uint256",
          "name": "price",
          "type": "uint256"
        },
        {
          "internalType": "uint256",
          "name": "priceInSPT",
          "type": "uint256"
        }
      ],
      "name": "mint",
      "outputs": [],
      "stateMutability": "nonpayable",
      "type": "function"
    },
    {
      "inputs": [
        {
          "internalType": "uint256",
          "name": "token_id",
          "type": "uint256"
        }
      ],
      "name": "mint",
      "outputs": [],
      "stateMutability": "payable",
      "type": "function"
    }
  ],
  "bytecode": "0x60806040523480156200001157600080fd5b506040516200359d3803806200359d8339818101604052810190620000379190620002cf565b6040518060600160405280603081526020016200356d603091396200006281620000cb60201b60201c565b506200008362000077620000e760201b60201c565b620000ef60201b60201c565b80600760006101000a81548173ffffffffffffffffffffffffffffffffffffffff021916908373ffffffffffffffffffffffffffffffffffffffff1602179055505062000365565b8060029080519060200190620000e3929190620001b5565b5050565b600033905090565b6000600360009054906101000a900473ffffffffffffffffffffffffffffffffffffffff16905081600360006101000a81548173ffffffffffffffffffffffffffffffffffffffff021916908373ffffffffffffffffffffffffffffffffffffffff1602179055508173ffffffffffffffffffffffffffffffffffffffff168173ffffffffffffffffffffffffffffffffffffffff167f8be0079c531659141344cd1fd0a4f28419497f9722a3daafe3b4186f6b6457e060405160405180910390a35050565b828054620001c39062000330565b90600052602060002090601f016020900481019282620001e7576000855562000233565b82601f106200020257805160ff191683800117855562000233565b8280016001018555821562000233579182015b828111156200023257825182559160200191906001019062000215565b5b50905062000242919062000246565b5090565b5b808211156200026157600081600090555060010162000247565b5090565b600080fd5b600073ffffffffffffffffffffffffffffffffffffffff82169050919050565b600062000297826200026a565b9050919050565b620002a9816200028a565b8114620002b557600080fd5b50565b600081519050620002c9816200029e565b92915050565b600060208284031215620002e857620002e762000265565b5b6000620002f884828501620002b8565b91505092915050565b7f4e487b7100000000000000000000000000000000000000000000000000000000600052602260045260246000fd5b600060028204905060018216806200034957607f821691505b6020821081036200035f576200035e62000301565b5b50919050565b6131f880620003756000396000f3fe6080604052600436106100dc5760003560e01c80637ad3def21161007f578063a22cb46511610059578063a22cb465146102ae578063e985e9c5146102d7578063f242432a14610314578063f2fde38b1461033d576100dc565b80637ad3def21461023e5780638da5cb5b14610267578063a0712d6814610292576100dc565b80631b2ef1ca116100bb5780631b2ef1ca146101985780632eb2c2d6146101c15780634e1273f4146101ea578063715018a614610227576100dc565b8062fdd58e146100e157806301ffc9a71461011e5780630e89341c1461015b575b600080fd5b3480156100ed57600080fd5b5061010860048036038101906101039190611c95565b610366565b6040516101159190611ce4565b60405180910390f35b34801561012a57600080fd5b5061014560048036038101906101409190611d57565b61042e565b6040516101529190611d9f565b60405180910390f35b34801561016757600080fd5b50610182600480360381019061017d9190611dba565b610510565b60405161018f9190611e80565b60405180910390f35b3480156101a457600080fd5b506101bf60048036038101906101ba9190611ea2565b6105a4565b005b3480156101cd57600080fd5b506101e860048036038101906101e391906120df565b6106d3565b005b3480156101f657600080fd5b50610211600480360381019061020c9190612271565b610774565b60405161021e91906123a7565b60405180910390f35b34801561023357600080fd5b5061023c61088d565b005b34801561024a57600080fd5b50610265600480360381019061026091906123c9565b6108a1565b005b34801561027357600080fd5b5061027c6108ed565b6040516102899190612405565b60405180910390f35b6102ac60048036038101906102a79190611dba565b610917565b005b3480156102ba57600080fd5b506102d560048036038101906102d0919061244c565b610b12565b005b3480156102e357600080fd5b506102fe60048036038101906102f9919061248c565b610b28565b60405161030b9190611d9f565b60405180910390f35b34801561032057600080fd5b5061033b600480360381019061033691906124cc565b610bbc565b005b34801561034957600080fd5b50610364600480360381019061035f91906123c9565b610c5d565b005b60008073ffffffffffffffffffffffffffffffffffffffff168373ffffffffffffffffffffffffffffffffffffffff16036103d6576040517f08c379a00000000000000000000000000000000000000000000000000000000081526004016103cd906125d5565b60405180910390fd5b60008083815260200190815260200160002060008473ffffffffffffffffffffffffffffffffffffffff1673ffffffffffffffffffffffffffffffffffffffff16815260200190815260200160002054905092915050565b60007fd9b67a26000000000000000000000000000000000000000000000000000000007bffffffffffffffffffffffffffffffffffffffffffffffffffffffff1916827bffffffffffffffffffffffffffffffffffffffffffffffffffffffff191614806104f957507f0e89341c000000000000000000000000000000000000000000000000000000007bffffffffffffffffffffffffffffffffffffffffffffffffffffffff1916827bffffffffffffffffffffffffffffffffffffffffffffffffffffffff1916145b80610509575061050882610ce0565b5b9050919050565b60606002805461051f90612624565b80601f016020809104026020016040519081016040528092919081815260200182805461054b90612624565b80156105985780601f1061056d57610100808354040283529160200191610598565b820191906000526020600020905b81548152906001019060200180831161057b57829003601f168201915b50505050509050919050565b6105ac610d4a565b600073ffffffffffffffffffffffffffffffffffffffff163373ffffffffffffffffffffffffffffffffffffffff160361061b576040517f08c379a0000000000000000000000000000000000000000000000000000000008152600401610612906126a1565b60405180910390fd5b6000821161065e576040517f08c379a00000000000000000000000000000000000000000000000000000000081526004016106559061270d565b60405180910390fd5b6106686004610dc8565b81600560006106776004610dde565b81526020019081526020016000208190555080600660006106986004610dde565b8152602001908152602001600020819055506106cf336106b86004610dde565b600160405180602001604052806000815250610dec565b5050565b6106db610f9c565b73ffffffffffffffffffffffffffffffffffffffff168573ffffffffffffffffffffffffffffffffffffffff16148061072157506107208561071b610f9c565b610b28565b5b610760576040517f08c379a00000000000000000000000000000000000000000000000000000000081526004016107579061279f565b60405180910390fd5b61076d8585858585610fa4565b5050505050565b606081518351146107ba576040517f08c379a00000000000000000000000000000000000000000000000000000000081526004016107b190612831565b60405180910390fd5b6000835167ffffffffffffffff8111156107d7576107d6611ee7565b5b6040519080825280602002602001820160405280156108055781602001602082028036833780820191505090505b50905060005b84518110156108825761085285828151811061082a57610829612851565b5b602002602001015185838151811061084557610844612851565b5b6020026020010151610366565b82828151811061086557610864612851565b5b6020026020010181815250508061087b906128af565b905061080b565b508091505092915050565b610895610d4a565b61089f60006112c5565b565b6108a9610d4a565b80600760006101000a81548173ffffffffffffffffffffffffffffffffffffffff021916908373ffffffffffffffffffffffffffffffffffffffff16021790555050565b6000600360009054906101000a900473ffffffffffffffffffffffffffffffffffffffff16905090565b600073ffffffffffffffffffffffffffffffffffffffff163373ffffffffffffffffffffffffffffffffffffffff1603610986576040517f08c379a000000000000000000000000000000000000000000000000000000000815260040161097d906126a1565b60405180910390fd5b600081116109c9576040517f08c379a00000000000000000000000000000000000000000000000000000000081526004016109c090612943565b60405180910390fd5b60006109d53383610366565b14610a15576040517f08c379a0000000000000000000000000000000000000000000000000000000008152600401610a0c906129af565b60405180910390fd5b34600560008381526020019081526020016000205403610a5057610a4b3382600160405180602001604052806000815250610dec565b610b0f565b600760009054906101000a900473ffffffffffffffffffffffffffffffffffffffff1673ffffffffffffffffffffffffffffffffffffffff166379cc67903360066000858152602001908152602001600020546040518363ffffffff1660e01b8152600401610ac09291906129cf565b600060405180830381600087803b158015610ada57600080fd5b505af1158015610aee573d6000803e3d6000fd5b50505050610b0e3382600160405180602001604052806000815250610dec565b5b50565b610b24610b1d610f9c565b838361138b565b5050565b6000600160008473ffffffffffffffffffffffffffffffffffffffff1673ffffffffffffffffffffffffffffffffffffffff16815260200190815260200160002060008373ffffffffffffffffffffffffffffffffffffffff1673ffffffffffffffffffffffffffffffffffffffff16815260200190815260200160002060009054906101000a900460ff16905092915050565b610bc4610f9c565b73ffffffffffffffffffffffffffffffffffffffff168573ffffffffffffffffffffffffffffffffffffffff161480610c0a5750610c0985610c04610f9c565b610b28565b5b610c49576040517f08c379a0000000000000000000000000000000000000000000000000000000008152600401610c409061279f565b60405180910390fd5b610c5685858585856114f7565b5050505050565b610c65610d4a565b600073ffffffffffffffffffffffffffffffffffffffff168173ffffffffffffffffffffffffffffffffffffffff1603610cd4576040517f08c379a0000000000000000000000000000000000000000000000000000000008152600401610ccb90612a6a565b60405180910390fd5b610cdd816112c5565b50565b60007f01ffc9a7000000000000000000000000000000000000000000000000000000007bffffffffffffffffffffffffffffffffffffffffffffffffffffffff1916827bffffffffffffffffffffffffffffffffffffffffffffffffffffffff1916149050919050565b610d52610f9c565b73ffffffffffffffffffffffffffffffffffffffff16610d706108ed565b73ffffffffffffffffffffffffffffffffffffffff1614610dc6576040517f08c379a0000000000000000000000000000000000000000000000000000000008152600401610dbd90612ad6565b60405180910390fd5b565b6001816000016000828254019250508190555050565b600081600001549050919050565b600073ffffffffffffffffffffffffffffffffffffffff168473ffffffffffffffffffffffffffffffffffffffff1603610e5b576040517f08c379a0000000000000000000000000000000000000000000000000000000008152600401610e5290612b68565b60405180910390fd5b6000610e65610f9c565b90506000610e7285611792565b90506000610e7f85611792565b9050610e908360008985858961180c565b8460008088815260200190815260200160002060008973ffffffffffffffffffffffffffffffffffffffff1673ffffffffffffffffffffffffffffffffffffffff1681526020019081526020016000206000828254610eef9190612b88565b925050819055508673ffffffffffffffffffffffffffffffffffffffff16600073ffffffffffffffffffffffffffffffffffffffff168473ffffffffffffffffffffffffffffffffffffffff167fc3d58168c5ae7397731d063d5bbf3d657854427343f4c083240f7aacaa2d0f628989604051610f6d929190612bde565b60405180910390a4610f8483600089858589611814565b610f938360008989898961181c565b50505050505050565b600033905090565b8151835114610fe8576040517f08c379a0000000000000000000000000000000000000000000000000000000008152600401610fdf90612c79565b60405180910390fd5b600073ffffffffffffffffffffffffffffffffffffffff168473ffffffffffffffffffffffffffffffffffffffff1603611057576040517f08c379a000000000000000000000000000000000000000000000000000000000815260040161104e90612d0b565b60405180910390fd5b6000611061610f9c565b905061107181878787878761180c565b60005b845181101561122257600085828151811061109257611091612851565b5b6020026020010151905060008583815181106110b1576110b0612851565b5b60200260200101519050600080600084815260200190815260200160002060008b73ffffffffffffffffffffffffffffffffffffffff1673ffffffffffffffffffffffffffffffffffffffff16815260200190815260200160002054905081811015611152576040517f08c379a000000000000000000000000000000000000000000000000000000000815260040161114990612d9d565b60405180910390fd5b81810360008085815260200190815260200160002060008c73ffffffffffffffffffffffffffffffffffffffff1673ffffffffffffffffffffffffffffffffffffffff168152602001908152602001600020819055508160008085815260200190815260200160002060008b73ffffffffffffffffffffffffffffffffffffffff1673ffffffffffffffffffffffffffffffffffffffff16815260200190815260200160002060008282546112079190612b88565b925050819055505050508061121b906128af565b9050611074565b508473ffffffffffffffffffffffffffffffffffffffff168673ffffffffffffffffffffffffffffffffffffffff168273ffffffffffffffffffffffffffffffffffffffff167f4a39dc06d4c0dbc64b70af90fd698a233a518aa5d07e595d983b8c0526c8f7fb8787604051611299929190612dbd565b60405180910390a46112af818787878787611814565b6112bd8187878787876119f3565b505050505050565b6000600360009054906101000a900473ffffffffffffffffffffffffffffffffffffffff16905081600360006101000a81548173ffffffffffffffffffffffffffffffffffffffff021916908373ffffffffffffffffffffffffffffffffffffffff1602179055508173ffffffffffffffffffffffffffffffffffffffff168173ffffffffffffffffffffffffffffffffffffffff167f8be0079c531659141344cd1fd0a4f28419497f9722a3daafe3b4186f6b6457e060405160405180910390a35050565b8173ffffffffffffffffffffffffffffffffffffffff168373ffffffffffffffffffffffffffffffffffffffff16036113f9576040517f08c379a00000000000000000000000000000000000000000000000000000000081526004016113f090612e66565b60405180910390fd5b80600160008573ffffffffffffffffffffffffffffffffffffffff1673ffffffffffffffffffffffffffffffffffffffff16815260200190815260200160002060008473ffffffffffffffffffffffffffffffffffffffff1673ffffffffffffffffffffffffffffffffffffffff16815260200190815260200160002060006101000a81548160ff0219169083151502179055508173ffffffffffffffffffffffffffffffffffffffff168373ffffffffffffffffffffffffffffffffffffffff167f17307eab39ab6107e8899845ad3d59bd9653f200f220920489ca2b5937696c31836040516114ea9190611d9f565b60405180910390a3505050565b600073ffffffffffffffffffffffffffffffffffffffff168473ffffffffffffffffffffffffffffffffffffffff1603611566576040517f08c379a000000000000000000000000000000000000000000000000000000000815260040161155d90612d0b565b60405180910390fd5b6000611570610f9c565b9050600061157d85611792565b9050600061158a85611792565b905061159a83898985858961180c565b600080600088815260200190815260200160002060008a73ffffffffffffffffffffffffffffffffffffffff1673ffffffffffffffffffffffffffffffffffffffff16815260200190815260200160002054905085811015611631576040517f08c379a000000000000000000000000000000000000000000000000000000000815260040161162890612d9d565b60405180910390fd5b85810360008089815260200190815260200160002060008b73ffffffffffffffffffffffffffffffffffffffff1673ffffffffffffffffffffffffffffffffffffffff168152602001908152602001600020819055508560008089815260200190815260200160002060008a73ffffffffffffffffffffffffffffffffffffffff1673ffffffffffffffffffffffffffffffffffffffff16815260200190815260200160002060008282546116e69190612b88565b925050819055508773ffffffffffffffffffffffffffffffffffffffff168973ffffffffffffffffffffffffffffffffffffffff168573ffffffffffffffffffffffffffffffffffffffff167fc3d58168c5ae7397731d063d5bbf3d657854427343f4c083240f7aacaa2d0f628a8a604051611763929190612bde565b60405180910390a4611779848a8a86868a611814565b611787848a8a8a8a8a61181c565b505050505050505050565b60606000600167ffffffffffffffff8111156117b1576117b0611ee7565b5b6040519080825280602002602001820160405280156117df5781602001602082028036833780820191505090505b50905082816000815181106117f7576117f6612851565b5b60200260200101818152505080915050919050565b505050505050565b505050505050565b61183b8473ffffffffffffffffffffffffffffffffffffffff16611bca565b156119eb578373ffffffffffffffffffffffffffffffffffffffff1663f23a6e6187878686866040518663ffffffff1660e01b8152600401611881959493929190612edb565b6020604051808303816000875af19250505080156118bd57506040513d601f19601f820116820180604052508101906118ba9190612f4a565b60015b611962576118c9612f84565b806308c379a00361192557506118dd612fa6565b806118e85750611927565b806040517f08c379a000000000000000000000000000000000000000000000000000000000815260040161191c9190611e80565b60405180910390fd5b505b6040517f08c379a0000000000000000000000000000000000000000000000000000000008152600401611959906130a8565b60405180910390fd5b63f23a6e6160e01b7bffffffffffffffffffffffffffffffffffffffffffffffffffffffff1916817bffffffffffffffffffffffffffffffffffffffffffffffffffffffff1916146119e9576040517f08c379a00000000000000000000000000000000000000000000000000000000081526004016119e09061313a565b60405180910390fd5b505b505050505050565b611a128473ffffffffffffffffffffffffffffffffffffffff16611bca565b15611bc2578373ffffffffffffffffffffffffffffffffffffffff1663bc197c8187878686866040518663ffffffff1660e01b8152600401611a5895949392919061315a565b6020604051808303816000875af1925050508015611a9457506040513d601f19601f82011682018060405250810190611a919190612f4a565b60015b611b3957611aa0612f84565b806308c379a003611afc5750611ab4612fa6565b80611abf5750611afe565b806040517f08c379a0000000000000000000000000000000000000000000000000000000008152600401611af39190611e80565b60405180910390fd5b505b6040517f08c379a0000000000000000000000000000000000000000000000000000000008152600401611b30906130a8565b60405180910390fd5b63bc197c8160e01b7bffffffffffffffffffffffffffffffffffffffffffffffffffffffff1916817bffffffffffffffffffffffffffffffffffffffffffffffffffffffff191614611bc0576040517f08c379a0000000000000000000000000000000000000000000000000000000008152600401611bb79061313a565b60405180910390fd5b505b505050505050565b6000808273ffffffffffffffffffffffffffffffffffffffff163b119050919050565b6000604051905090565b600080fd5b600080fd5b600073ffffffffffffffffffffffffffffffffffffffff82169050919050565b6000611c2c82611c01565b9050919050565b611c3c81611c21565b8114611c4757600080fd5b50565b600081359050611c5981611c33565b92915050565b6000819050919050565b611c7281611c5f565b8114611c7d57600080fd5b50565b600081359050611c8f81611c69565b92915050565b60008060408385031215611cac57611cab611bf7565b5b6000611cba85828601611c4a565b9250506020611ccb85828601611c80565b9150509250929050565b611cde81611c5f565b82525050565b6000602082019050611cf96000830184611cd5565b92915050565b60007fffffffff0000000000000000000000000000000000000000000000000000000082169050919050565b611d3481611cff565b8114611d3f57600080fd5b50565b600081359050611d5181611d2b565b92915050565b600060208284031215611d6d57611d6c611bf7565b5b6000611d7b84828501611d42565b91505092915050565b60008115159050919050565b611d9981611d84565b82525050565b6000602082019050611db46000830184611d90565b92915050565b600060208284031215611dd057611dcf611bf7565b5b6000611dde84828501611c80565b91505092915050565b600081519050919050565b600082825260208201905092915050565b60005b83811015611e21578082015181840152602081019050611e06565b83811115611e30576000848401525b50505050565b6000601f19601f8301169050919050565b6000611e5282611de7565b611e5c8185611df2565b9350611e6c818560208601611e03565b611e7581611e36565b840191505092915050565b60006020820190508181036000830152611e9a8184611e47565b905092915050565b60008060408385031215611eb957611eb8611bf7565b5b6000611ec785828601611c80565b9250506020611ed885828601611c80565b9150509250929050565b600080fd5b7f4e487b7100000000000000000000000000000000000000000000000000000000600052604160045260246000fd5b611f1f82611e36565b810181811067ffffffffffffffff82111715611f3e57611f3d611ee7565b5b80604052505050565b6000611f51611bed565b9050611f5d8282611f16565b919050565b600067ffffffffffffffff821115611f7d57611f7c611ee7565b5b602082029050602081019050919050565b600080fd5b6000611fa6611fa184611f62565b611f47565b90508083825260208201905060208402830185811115611fc957611fc8611f8e565b5b835b81811015611ff25780611fde8882611c80565b845260208401935050602081019050611fcb565b5050509392505050565b600082601f83011261201157612010611ee2565b5b8135612021848260208601611f93565b91505092915050565b600080fd5b600067ffffffffffffffff82111561204a57612049611ee7565b5b61205382611e36565b9050602081019050919050565b82818337600083830152505050565b600061208261207d8461202f565b611f47565b90508281526020810184848401111561209e5761209d61202a565b5b6120a9848285612060565b509392505050565b600082601f8301126120c6576120c5611ee2565b5b81356120d684826020860161206f565b91505092915050565b600080600080600060a086880312156120fb576120fa611bf7565b5b600061210988828901611c4a565b955050602061211a88828901611c4a565b945050604086013567ffffffffffffffff81111561213b5761213a611bfc565b5b61214788828901611ffc565b935050606086013567ffffffffffffffff81111561216857612167611bfc565b5b61217488828901611ffc565b925050608086013567ffffffffffffffff81111561219557612194611bfc565b5b6121a1888289016120b1565b9150509295509295909350565b600067ffffffffffffffff8211156121c9576121c8611ee7565b5b602082029050602081019050919050565b60006121ed6121e8846121ae565b611f47565b905080838252602082019050602084028301858111156122105761220f611f8e565b5b835b8181101561223957806122258882611c4a565b845260208401935050602081019050612212565b5050509392505050565b600082601f83011261225857612257611ee2565b5b81356122688482602086016121da565b91505092915050565b6000806040838503121561228857612287611bf7565b5b600083013567ffffffffffffffff8111156122a6576122a5611bfc565b5b6122b285828601612243565b925050602083013567ffffffffffffffff8111156122d3576122d2611bfc565b5b6122df85828601611ffc565b9150509250929050565b600081519050919050565b600082825260208201905092915050565b6000819050602082019050919050565b61231e81611c5f565b82525050565b60006123308383612315565b60208301905092915050565b6000602082019050919050565b6000612354826122e9565b61235e81856122f4565b935061236983612305565b8060005b8381101561239a5781516123818882612324565b975061238c8361233c565b92505060018101905061236d565b5085935050505092915050565b600060208201905081810360008301526123c18184612349565b905092915050565b6000602082840312156123df576123de611bf7565b5b60006123ed84828501611c4a565b91505092915050565b6123ff81611c21565b82525050565b600060208201905061241a60008301846123f6565b92915050565b61242981611d84565b811461243457600080fd5b50565b60008135905061244681612420565b92915050565b6000806040838503121561246357612462611bf7565b5b600061247185828601611c4a565b925050602061248285828601612437565b9150509250929050565b600080604083850312156124a3576124a2611bf7565b5b60006124b185828601611c4a565b92505060206124c285828601611c4a565b9150509250929050565b600080600080600060a086880312156124e8576124e7611bf7565b5b60006124f688828901611c4a565b955050602061250788828901611c4a565b945050604061251888828901611c80565b935050606061252988828901611c80565b925050608086013567ffffffffffffffff81111561254a57612549611bfc565b5b612556888289016120b1565b9150509295509295909350565b7f455243313135353a2061646472657373207a65726f206973206e6f742061207660008201527f616c6964206f776e657200000000000000000000000000000000000000000000602082015250565b60006125bf602a83611df2565b91506125ca82612563565b604082019050919050565b600060208201905081810360008301526125ee816125b2565b9050919050565b7f4e487b7100000000000000000000000000000000000000000000000000000000600052602260045260246000fd5b6000600282049050600182168061263c57607f821691505b60208210810361264f5761264e6125f5565b5b50919050565b7f746f206164647265737320697320696e76616c69640000000000000000000000600082015250565b600061268b601583611df2565b915061269682612655565b602082019050919050565b600060208201905081810360008301526126ba8161267e565b9050919050565b7f616d6f756e7420697320696e76616c6964000000000000000000000000000000600082015250565b60006126f7601183611df2565b9150612702826126c1565b602082019050919050565b60006020820190508181036000830152612726816126ea565b9050919050565b7f455243313135353a2063616c6c6572206973206e6f7420746f6b656e206f776e60008201527f6572206e6f7220617070726f7665640000000000000000000000000000000000602082015250565b6000612789602f83611df2565b91506127948261272d565b604082019050919050565b600060208201905081810360008301526127b88161277c565b9050919050565b7f455243313135353a206163636f756e747320616e6420696473206c656e67746860008201527f206d69736d617463680000000000000000000000000000000000000000000000602082015250565b600061281b602983611df2565b9150612826826127bf565b604082019050919050565b6000602082019050818103600083015261284a8161280e565b9050919050565b7f4e487b7100000000000000000000000000000000000000000000000000000000600052603260045260246000fd5b7f4e487b7100000000000000000000000000000000000000000000000000000000600052601160045260246000fd5b60006128ba82611c5f565b91507fffffffffffffffffffffffffffffffffffffffffffffffffffffffffffffffff82036128ec576128eb612880565b5b600182019050919050565b7f746f6b656e20696420697320696e76616c696400000000000000000000000000600082015250565b600061292d601383611df2565b9150612938826128f7565b602082019050919050565b6000602082019050818103600083015261295c81612920565b9050919050565b7f616c7265616479206d696e746564000000000000000000000000000000000000600082015250565b6000612999600e83611df2565b91506129a482612963565b602082019050919050565b600060208201905081810360008301526129c88161298c565b9050919050565b60006040820190506129e460008301856123f6565b6129f16020830184611cd5565b9392505050565b7f4f776e61626c653a206e6577206f776e657220697320746865207a65726f206160008201527f6464726573730000000000000000000000000000000000000000000000000000602082015250565b6000612a54602683611df2565b9150612a5f826129f8565b604082019050919050565b60006020820190508181036000830152612a8381612a47565b9050919050565b7f4f776e61626c653a2063616c6c6572206973206e6f7420746865206f776e6572600082015250565b6000612ac0602083611df2565b9150612acb82612a8a565b602082019050919050565b60006020820190508181036000830152612aef81612ab3565b9050919050565b7f455243313135353a206d696e7420746f20746865207a65726f2061646472657360008201527f7300000000000000000000000000000000000000000000000000000000000000602082015250565b6000612b52602183611df2565b9150612b5d82612af6565b604082019050919050565b60006020820190508181036000830152612b8181612b45565b9050919050565b6000612b9382611c5f565b9150612b9e83611c5f565b9250827fffffffffffffffffffffffffffffffffffffffffffffffffffffffffffffffff03821115612bd357612bd2612880565b5b828201905092915050565b6000604082019050612bf36000830185611cd5565b612c006020830184611cd5565b9392505050565b7f455243313135353a2069647320616e6420616d6f756e7473206c656e6774682060008201527f6d69736d61746368000000000000000000000000000000000000000000000000602082015250565b6000612c63602883611df2565b9150612c6e82612c07565b604082019050919050565b60006020820190508181036000830152612c9281612c56565b9050919050565b7f455243313135353a207472616e7366657220746f20746865207a65726f20616460008201527f6472657373000000000000000000000000000000000000000000000000000000602082015250565b6000612cf5602583611df2565b9150612d0082612c99565b604082019050919050565b60006020820190508181036000830152612d2481612ce8565b9050919050565b7f455243313135353a20696e73756666696369656e742062616c616e636520666f60008201527f72207472616e7366657200000000000000000000000000000000000000000000602082015250565b6000612d87602a83611df2565b9150612d9282612d2b565b604082019050919050565b60006020820190508181036000830152612db681612d7a565b9050919050565b60006040820190508181036000830152612dd78185612349565b90508181036020830152612deb8184612349565b90509392505050565b7f455243313135353a2073657474696e6720617070726f76616c2073746174757360008201527f20666f722073656c660000000000000000000000000000000000000000000000602082015250565b6000612e50602983611df2565b9150612e5b82612df4565b604082019050919050565b60006020820190508181036000830152612e7f81612e43565b9050919050565b600081519050919050565b600082825260208201905092915050565b6000612ead82612e86565b612eb78185612e91565b9350612ec7818560208601611e03565b612ed081611e36565b840191505092915050565b600060a082019050612ef060008301886123f6565b612efd60208301876123f6565b612f0a6040830186611cd5565b612f176060830185611cd5565b8181036080830152612f298184612ea2565b90509695505050505050565b600081519050612f4481611d2b565b92915050565b600060208284031215612f6057612f5f611bf7565b5b6000612f6e84828501612f35565b91505092915050565b60008160e01c9050919050565b600060033d1115612fa35760046000803e612fa0600051612f77565b90505b90565b600060443d1061303357612fb8611bed565b60043d036004823e80513d602482011167ffffffffffffffff82111715612fe0575050613033565b808201805167ffffffffffffffff811115612ffe5750505050613033565b80602083010160043d03850181111561301b575050505050613033565b61302a82602001850186611f16565b82955050505050505b90565b7f455243313135353a207472616e7366657220746f206e6f6e204552433131353560008201527f526563656976657220696d706c656d656e746572000000000000000000000000602082015250565b6000613092603483611df2565b915061309d82613036565b604082019050919050565b600060208201905081810360008301526130c181613085565b9050919050565b7f455243313135353a204552433131353552656365697665722072656a6563746560008201527f6420746f6b656e73000000000000000000000000000000000000000000000000602082015250565b6000613124602883611df2565b915061312f826130c8565b604082019050919050565b6000602082019050818103600083015261315381613117565b9050919050565b600060a08201905061316f60008301886123f6565b61317c60208301876123f6565b818103604083015261318e8186612349565b905081810360608301526131a28185612349565b905081810360808301526131b68184612ea2565b9050969550505050505056fea2646970667358221220c5c69f43b5fb7dd2d42e3271e58c8dfa7fef3a54f6db71fc7c4409d9ba0647f564736f6c634300080d003368747470733a2f2f7370616365706f6c792e6e65746c6966792e6170702f6170692f6974656d2f7b69647d2e6a736f6e",
  "immutableReferences": {},
  "source": "// SPDX-License-Identifier: MIT\npragma solidity >=0.4.25 <0.9.0;\n\nimport \"@openzeppelin/contracts/token/ERC1155/ERC1155.sol\";\nimport \"@openzeppelin/contracts/access/Ownable.sol\";\nimport \"@openzeppelin/contracts/utils/Counters.sol\";\nimport \"./SpaceOzToken.sol\";\n\ncontract SpacePolyInventory is ERC1155, Ownable {\n    using Counters for Counters.Counter;\n    Counters.Counter private _tokenIds;\n\n    mapping(uint256 => uint256) private _tokenPrices;\n    mapping(uint256 => uint256) private _tokenPricesInSPT;\n\n    address token;\n\n    constructor(address token_) ERC1155(\"https://spacepoly.netlify.app/api/item/{id}.json\") {\n        token = token_;\n    }\n\n    function updateToken(address token_) public onlyOwner {\n        token = token_;\n    }\n\n    function mint(uint256 price, uint256 priceInSPT) public onlyOwner {\n        require(msg.sender != address(0), \"to address is invalid\");\n        require(price > 0, \"amount is invalid\");\n        _tokenIds.increment();\n        _tokenPrices[_tokenIds.current()] = price;\n        _tokenPricesInSPT[_tokenIds.current()] = priceInSPT;\n        _mint(msg.sender, _tokenIds.current(), 1, \"\");\n    }\n\n    function mint(uint256 token_id) public payable {\n        require(msg.sender != address(0), \"to address is invalid\");\n        require(token_id > 0, \"token id is invalid\");\n        require(balanceOf(msg.sender, token_id) == 0, \"already minted\");\n        if (_tokenPrices[token_id] == msg.value) {\n            _mint(msg.sender, token_id, 1, \"\");\n        } else {\n            SpacePolyToken(token).burnFrom(msg.sender, _tokenPricesInSPT[token_id]);\n            _mint(msg.sender, token_id, 1, \"\");\n        }\n    }\n}\n",
  "sourcePath": "/Users/maadhav/Documents/web3Projects/spaceoz-evmos/contracts/SpaceOzInventory.sol",
  "compiler": {
    "name": "solc",
    "version": "0.8.13+commit.abaa5c0e.Emscripten.clang"
  },
  "schemaVersion": "3.4.2",
  "updatedAt": "2022-08-29T16:42:02.098Z",
  "devdoc": {
    "kind": "dev",
    "methods": {
      "balanceOf(address,uint256)": {
        "details": "See {IERC1155-balanceOf}. Requirements: - `account` cannot be the zero address."
      },
      "balanceOfBatch(address[],uint256[])": {
        "details": "See {IERC1155-balanceOfBatch}. Requirements: - `accounts` and `ids` must have the same length."
      },
      "isApprovedForAll(address,address)": {
        "details": "See {IERC1155-isApprovedForAll}."
      },
      "owner()": {
        "details": "Returns the address of the current owner."
      },
      "renounceOwnership()": {
        "details": "Leaves the contract without owner. It will not be possible to call `onlyOwner` functions anymore. Can only be called by the current owner. NOTE: Renouncing ownership will leave the contract without an owner, thereby removing any functionality that is only available to the owner."
      },
      "safeBatchTransferFrom(address,address,uint256[],uint256[],bytes)": {
        "details": "See {IERC1155-safeBatchTransferFrom}."
      },
      "safeTransferFrom(address,address,uint256,uint256,bytes)": {
        "details": "See {IERC1155-safeTransferFrom}."
      },
      "setApprovalForAll(address,bool)": {
        "details": "See {IERC1155-setApprovalForAll}."
      },
      "supportsInterface(bytes4)": {
        "details": "See {IERC165-supportsInterface}."
      },
      "transferOwnership(address)": {
        "details": "Transfers ownership of the contract to a new account (`newOwner`). Can only be called by the current owner."
      },
      "uri(uint256)": {
        "details": "See {IERC1155MetadataURI-uri}. This implementation returns the same URI for *all* token types. It relies on the token type ID substitution mechanism https://eips.ethereum.org/EIPS/eip-1155#metadata[defined in the EIP]. Clients calling this function must replace the `\\{id\\}` substring with the actual token type ID."
      }
    },
    "version": 1
  },
  "userdoc": {
    "kind": "user",
    "methods": {},
    "version": 1
  }
}